:060000000A128A110C280F
:10000800FE00030EF0000A08F1000A128A118E2B76
:100018000A128A110F280A128A11B4230A128A11A5
:10002800BA0083132030840038300A128A11AC23B6
:100038000A128A11FA01FB0183010A128A115F2B45
:1000480000308A000408840A82070034473469347F
:10005800723461346E3464346F342034443445343B
:1000680052344534433448344134203400344D3418
:100078006F3464346F343A342034483441344C3467
:100088004634203453345434453450342034003406
:100098004D346F3464346F343A3420344634553434
:1000A8004C344C3420345334543445345034203494
:1000B80000344D3465346434693461342034763422
:1000C800753465346C3474346134203449345A34AA
:1000D800513400344D346534643469346134203427
:1000E8007634753465346C34743461342034443473
:1000F8004534523400344D346F3474346F347234B0
:10010800203444344534543445344E34493444342A
:100118004F342034003447346934723461346E34D7
:1001280064346F34203449345A34513455344934A2
:10013800453452340034F90100300A128A11772309
:100148000A128A1183120313061CAB28AC28B428A0
:100158002330F9000A128A1141230A128A11BB2896
:100168001230F9000A128A1141230A128A11F90180
:1001780001300A128A1177230A128A117B0803199F
:10018800C628C728CF284530F9000A128A1141230A
:100198000A128A1105297A080319D328D428DC28D9
:1001A8003430F9000A128A1141230A128A110529EA
:1001B800831203138618E128E228EE28061DE52895
:1001C800E628EE280130F9000A128A1141230A12A2
:1001D8008A110529861CF128F228FE280619F52817
:1001E800F628FE286630F9000A128A1141230A12FD
:1001F8008A1105295630F9000A128A1141230A1278
:100208008A110800143083120313B9007930B8003A
:10021800B80B0C29B90B0C2983120313071087108C
:1002280003300A128A114C220A128A1107308312EB
:100238000313B9007C30B800B80B2029B90B20296A
:10024800000003300A128A114C220A128A11203047
:1002580083120313B800B80B2F29000003300A12C9
:100268008A114C220A128A1102300A128A114C226F
:100278000A128A11F50128300A128A1193220A12E9
:100288008A11F5010C300A128A1193220A128A1176
:10029800F50106300A128A1193220A128A11F50111
:1002A80001300A128A1193220A128A11033083122A
:1002B8000313B9009730B800B80B6029B90B60294F
:1002C8000800003083120313861A0130F2003A083E
:1002D80003196F297029B1297208031D742975291A
:1002E800B129061C78297929952986187C297D2920
:1002F8008729061D8029812987290A128A11F8224F
:100308000A128A11B129861C8A298B29B129061952
:100318008E298F29B1290A128A11CD220A128A112F
:10032800B129861898299929A329061D9C299D2950
:10033800A3290A128A1101220A128A11B129861CDC
:10034800A629A729B1290619AA29AB29B1290A1270
:100358008A11B6210A128A11B1297208831203136D
:10036800BA000800DF290810881008118815FB2931
:100378000810881408118815FB290810881408111A
:100388008811FB290810881408158811FB29081002
:10039800881008158811FB29081488100815881179
:1003A800FB290814881008118811FB2908148810E3
:1003B80008118815FB29831203133308003A03191F
:1003C800B729013A0319BC29033A0319C129013A8B
:1003D8000319C629073A0319CB29013A0319D02969
:1003E800033A0319D529013A0319DA29FB293308F5
:1003F800013EB3000730B30508002A2A0814881004
:1004080008118811462A0814881008158811462AE8
:100418000810881008158811462A0810881408152D
:100428008811462A0810881408118811462A0810CD
:10043800881408118815462A08108810081188158C
:10044800462A0814881008118815462A83120313AF
:100458003408003A0319022A013A0319072A033A11
:1004680003190C2A013A0319112A073A0319162A03
:10047800013A03191B2A033A0319202A013A0319DE
:10048800252A462A3408013EB4000730B40508007E
:10049800F4007418502A542A831203130715572A94
:1004A8008312031307117408F30001300310F30CCF
:1004B800FF3E031D5A2A7318622A662A8312031301
:1004C8008715692A8312031387117408F300023011
:1004D8000310F30CFF3E031D6C2A7318742A782A44
:1004E8008312031307167B2A831203130712740857
:1004F800F30003300310F30CFF3E031D7E2A73182C
:10050800862A8A2A8312031387168D2A83120313D5
:1005180087120A128A11A0230A128A110800F80009
:100528007518972A9B2A8312031307149E2A83128D
:10053800031307107808F60004300310F60CFF3E8A
:10054800031DA12A76080A128A114C220A128A115E
:1005580078080F390A128A114C220A128A11780374
:100568000319B72AB82ABE2A02307806031DBD2A05
:10057800BE2AC82A0330F7009730F600F60BC22AC5
:10058800F70BC22AC72ACC2A2130F600F60BCA2A52
:100598000800E22A0814881008118815F22A0810A1
:1005A800881408118815F22A08108814081588116B
:1005B800F22A0814881008158811F22A83120313E6
:1005C8003508003A0319CE2A013A0319D32A033A07
:1005D8000319D82A013A0319DD2AF22A3508013EFF
:1005E800B5000330B50508000D2B08148810081550
:1005F80088111D2B08108814081588111D2B081048
:100608008814081188151D2B0814881008118815DE
:100618001D2B831203133608003A0319F92A013AED
:100628000319FE2A033A0319032B013A0319082B6D
:100638001D2B3608013EB6000330B60508006230AF
:10064800831603138F008316031789018801FF306F
:100658008316031386008801870183120313870119
:1006680088018601073083160313810064308312E2
:10067800031381008B168B170800522BF501F50A1E
:10068800790884000A128A1124200A128A110A128F
:100698008A1193220A128A110130F9077908840015
:1006A8000A128A1124200A128A11003A031D5D2BAE
:1006B8005E2B422B08000A128A1123230A128A1180
:1006C8000A128A1106210A128A110A128A11652150
:1006D8000A128A110A128A119F200A128A11692B9A
:1006E8000A128A110C2883120313B8003808031D54
:1006F8007E2B7F2B832B7908803EB900862B7908C7
:10070800C03EB900F50139080A128A1193220A126B
:100718008A1108000B1D912B922B992B0130831203
:100728000313B700643081000B1171088A00700E42
:100738008300FE0E7E0E0900831203138714000047
:100748008312031387102130F200F20BA92B080043
:1007580064008001840A0406031900340406AD2BE2
:0207680001345A
:02400E00F4209C
:00000001FF
